:100000000C945D000C9485000C9485000C94850084
:100010000C9485000C9485000C9485000C9485004C
:100020000C9485000C9485000C9485000C9485003C
:100030000C9485000C9485000C9485000C9485002C
:100040000C9463050C9485000C9431050C940B05FD
:100050000C9485000C9485000C9485000C9485000C
:100060000C9485000C94850000000008000201003B
:100070000003040700000000000000000000000072
:10008000250028002B0000000000240027002A0083
:10009000040404040404040402020202020203032E
:1000A0000303030301020408102040800102040836
:1000B0001020010204081020AD0511241FBECFEF4F
:1000C000D8E0DEBFCDBF11E0A0E0B1E0E8E2F4E1AE
:1000D00002C005900D92A63EB107D9F722E0A6EE28
:1000E000B1E001C01D92A63AB207E1F710E0CDE5FC
:1000F000D0E004C02197FE010E940C0ACC35D10744
:10010000C9F70E94F7050C94120A0C94000090E0C5
:10011000FC01EC55FF4F249180579F4FFC018491C7
:10012000882399F090E0880F991FFC01EA57FF4F50
:10013000A591B491FC01E458FF4F859194918FB73C
:10014000F894EC91E22BEC938FBF0895DC01ED91D4
:10015000FC910190F081E02D0994AF92BF92CF9273
:10016000DF92EF92FF920F931F93CF93DF936C0177
:100170007B018B01040F151FEB015E01AE18BF0858
:10018000C017D10759F06991D601ED91FC9101900A
:10019000F081E02DC6010995892B79F7C501DF9122
:1001A000CF911F910F91FF90EF90DF90CF90BF9074
:1001B000AF900895FC01538D448D252F30E0842F9E
:1001C00090E0821B930B541710F0CF96089501977F
:1001D0000895FC01918D828D981761F0A28DAE0F6C
:1001E000BF2FB11D5D968C91928D9F5F9F73928FF3
:1001F00090E008958FEF9FEF0895FC01918D828D1F
:10020000981731F0828DE80FF11D858D90E00895EB
:100210008FEF9FEF0895FC01918D228D892F90E043
:10022000805C9F4F821B91098F739927089581EFFE
:1002300091E00E940B0121E0892B09F420E0822F3C
:10024000089580E090E0892B29F00E941701811128
:100250000C9400000895FC01A48DA80FB92FB11DC6
:10026000A35ABF4F2C91848D90E001968F739927EC
:10027000848FA689B7892C93A089B1898C918370CA
:1002800080648C93938D848D981306C00288F389C3
:10029000E02D80818F7D80830895EF92FF920F93F0
:1002A0001F93CF93DF93EC0181E0888F9B8D8C8D22
:1002B00098131AC0E889F989808185FF15C09FB716
:1002C000F894EE89FF896083E889F98980818370D9
:1002D000806480839FBF81E090E0DF91CF911F9188
:1002E0000F91FF90EF900895F62E0B8D10E00F5FA9
:1002F0001F4F0F731127E02E8C8D8E110CC00FB67F
:1003000007FCFACFE889F989808185FFF5CFCE0116
:100310000E942B01F1CFEB8DEC0FFD2FF11DE35A65
:10032000FF4FF0829FB7F8940B8FEA89FB89808199
:100330008062CFCFCF93DF93EC01888D8823B9F013
:10034000AA89BB89E889F9898C9185FD03C08081E0
:1003500086FD0DC00FB607FCF7CF8C9185FFF2CF5D
:10036000808185FFEDCFCE010E942B01E9CFDF9187
:10037000CF91089590E0FC01E859FF4F2491FC01D2
:10038000EC55FF4F3491FC01E057FF4FE491EE2311
:10039000C9F0222339F0233001F1A8F4213019F1FA
:1003A000223029F1F0E0EE0FFF1FE458FF4FA59136
:1003B000B4918FB7F894EC91611126C030953E232B
:1003C0003C938FBF08952730A9F02830C9F024301E
:1003D00049F7809180008F7D03C0809180008F77E6
:1003E00080938000DFCF84B58F7784BDDBCF84B569
:1003F0008F7DFBCF8091B0008F778093B000D2CFFC
:100400008091B0008F7DF9CF3E2BDACF3FB7F894C3
:100410008091EB019091EC01A091ED01B091EE0182
:1004200026B5A89B05C02F3F19F00196A11DB11D4F
:100430003FBFBA2FA92F982F8827BC01CD01620F8B
:10044000711D811D911D42E0660F771F881F991F46
:100450004A95D1F708958F929F92AF92BF92CF9213
:10046000DF92EF92FF924B015C010E9406026B014A
:100470007C010E9406026C197D098E099F09683E65
:10048000734081059105A8F321E0821A9108A10823
:10049000B10888EEC80E83E0D81EE11CF11C81145F
:1004A0009104A104B10429F7FF90EF90DF90CF9061
:1004B000BF90AF909F908F900895089590E080E056
:1004C0000895CF93DF93EC0160E08E810E94BA0122
:1004D00061E08E810E94BA0160E08E810E94BA01C3
:1004E0008BE891E00197F1F7DF91CF910895CF92DA
:1004F000DF92EF92FF920F931F93CF93DF936C01E4
:100500007C0187E0E80EF11CD0E0C0E0062F10E08F
:10051000B8010C2E02C0759567950A94E2F76170D8
:10052000F70181917F010E94BA012196C430D10563
:1005300079F7C601DF91CF911F910F91FF90EF9056
:10054000DF90CF900C946102CF92DF92EF92FF92F6
:100550000F931F93CF93DF93EC01F62E642F8C81C2
:100560000E94BA018D818F3F19F060E00E94BA01AC
:100570000F2D10E08F8584FF25C06E0187E0C80E27
:10058000D11CF12CE12CB8010E2C02C07595679599
:100590000A94E2F76170F60181916F010E94BA013D
:1005A000FFEFEF1AFF0A88E0E816F10461F7CE01C9
:1005B000DF91CF911F910F91FF90EF90DF90CF903F
:1005C0000C946102B80184E0759567958A95E1F70E
:1005D000CE010E9477026F2DCE01DF91CF911F9146
:1005E0000F91FF90EF90DF90CF900C94770240E056
:1005F000682F8EE892E00C94A40281E00E94F7023A
:100600008BE39FE10197F1F70895CF93DF93823059
:1006100029F490919D02986090939D028093A1028D
:100620001092A20280E48093A30280E18093A4024E
:1006300080E58093A502809192020E9487008091BC
:1006400093028F3F11F00E948700809194020E94D4
:100650008700CEE8D2E09E012E58324080919D0264
:1006600084FD0AC084E090E02196281739073CF405
:100670008E810E948700EFCF88E090E0F5CF8BE37A
:100680009DE00197F1F760E0809192020E94BA012B
:1006900060E0809194020E94BA01809193028F3FA2
:1006A00019F060E00E94BA0180919D0284FD34C07F
:1006B00063E08EE892E00E947702CBE4D6E4CE01BC
:1006C0000197F1F763E08EE892E00E9477022197AC
:1006D000F1F763E08EE892E00E94770283E592E012
:1006E0000197F1F762E08EE892E00E947702809134
:1006F0009D0280620E94F70284E080939E028CE05B
:100700000E94F7020E94FD0282E080939F0286E031
:10071000DF91CF910C94F70280620E94F7028BE484
:1007200096E40197F1F780919D0280620E94F702A2
:1007300083E592E00197F1F780919D0280620E942B
:10074000F702D5CF9091A102691710F06FEF690FF2
:10075000E62FF0E0E257FD4F9489890F80680C94F2
:10076000F70241E00E94A40281E090E00895FB01BD
:1007700001900020E9F73197AF01461B570BDC01D0
:10078000ED91FC910280F381E02D09948F929F926C
:10079000AF92BF92EF92FF920F931F93CF93DF938D
:1007A000CDB7DEB7A1970FB6F894DEBF0FBECDBFB1
:1007B0007C01FA01CB0119A2223008F42AE08E0153
:1007C0000F5D1F4F822E912CB12CA12CBF01A501D2
:1007D00094010E94EA09F901CA016A300CF5605DD2
:1007E000D8016E938D01232B242B252B79F790E0D4
:1007F00080E0109721F0BD01C7010E94B703A196C8
:100800000FB6F894DEBF0FBECDBFDF91CF911F9121
:100810000F91FF90EF90BF90AF909F908F900895B1
:10082000695CDECFCF93DF93BC0181EF91E00E9442
:10083000B703EC0166E271E081EF91E00E94B7033B
:100840008C0F9D1FDF91CF9108952F923F924F9271
:100850005F926F927F928F929F92AF92BF92CF9250
:10086000DF92EF92FF921F93CF93DF93EC016A0127
:100870007B01722EAB019601CB01B6010E94E50906
:1008800069E271E0811126C046015701E894B7F88A
:100890002FEF3FEF4FE75FE7C501B4010E94E50985
:1008A00081110CC02FEF3FEF4FE75FE7C501B401A7
:1008B0000E941B086DE271E0181664F02FEF3FEF05
:1008C0004FE75FE4C701B6010E9473091816B4F43C
:1008D00061E371E0CE01DF91CF911F91FF90EF9026
:1008E000DF90CF90BF90AF909F908F907F906F9050
:1008F0005F904F903F902F900C94B7032FEF3FEFF6
:100900004FE75FECC701B6010E941B0887FDE0CFEF
:1009100020E030E0A901C701B6010E941B08312C7C
:10092000212C87FF09C06DE2CE010E94A6001C01A8
:10093000F7FAF094F7F8F09410E060E070E080E0EF
:100940009FE3711641F020E030E040E251E40E9464
:1009500020081F5FF6CFA70196010E94AF072B0169
:100960003C010E9492084B015C012AE0BC01A401F9
:10097000CE010E94C6037C01E20CF31C1123C1F1DD
:10098000C501B4010E94C1089B01AC01C301B201C1
:100990000E94AE074B015C016EE2CE010E94A600F0
:1009A000E80EF91E115020F120E030E040E251E461
:1009B000C501B4010E9478092B013C010E949208F4
:1009C0004B01B12CA12C2AE0B501A401CE010E945B
:1009D000C603E80EF91EC501B4010E94C1089B01BF
:1009E000AC01C301B2010E94AE074B015C01DACF3A
:1009F000C701DF91CF911F91FF90EF90DF90CF90D3
:100A0000BF90AF909F908F907F906F905F904F902E
:100A10003F902F9008951F920F920FB60F921124BE
:100A20002F933F934F935F936F937F938F939F93F6
:100A3000AF93BF93EF93FF9381EF91E00E942B015F
:100A4000FF91EF91BF91AF919F918F917F916F91A6
:100A50005F914F913F912F910F900FBE0F901F907C
:100A600018951F920F920FB60F9211242F938F9308
:100A70009F93EF93FF93E0910102F0910202808136
:100A8000E0910702F091080282FD1BC090818091E5
:100A90000A028F5F8F7320910B02821741F0E09161
:100AA0000A02F0E0EF50FE4F958F80930A02FF910B
:100AB000EF919F918F912F910F900FBE0F901F90EC
:100AC00018958081F4CF1F920F920FB60F921124C8
:100AD0002F933F938F939F93AF93BF938091E701A1
:100AE0009091E801A091E901B091EA013091E6010D
:100AF00023E0230F2D3758F50196A11DB11D20933A
:100B0000E6018093E7019093E801A093E901B09397
:100B1000EA018091EB019091EC01A091ED01B0917F
:100B2000EE010196A11DB11D8093EB019093EC01A4
:100B3000A093ED01B093EE01BF91AF919F918F9182
:100B40003F912F910F900FBE0F901F90189526E8A0
:100B5000230F0296A11DB11DD2CFE1EFF1E0138268
:100B6000128288EE93E0A0E0B0E084839583A683B0
:100B7000B7838CE091E09183808385EC90E095874A
:100B8000848784EC90E09787868780EC90E0918B57
:100B9000808B81EC90E0938B828B82EC90E0958B44
:100BA000848B86EC90E0978B868B118E128E138E41
:100BB000148EEEE8F2E0138212828EE191E09183CE
:100BC00080838CE084838FEF85838BE0868385E050
:100BD000878384E0808783E0818782E08287138631
:100BE000148615861686178681E00C940503789482
:100BF00084B5826084BD84B5816084BD85B5826022
:100C000085BD85B5816085BD80916E0081608093D2
:100C10006E0010928100809181008260809381003B
:100C2000809181008160809381008091800081604B
:100C3000809380008091B10084608093B1008091A6
:100C4000B00081608093B00080917A0084608093CE
:100C50007A0080917A00826080937A0080917A0095
:100C6000816080937A0080917A00806880937A0016
:100C70001092C10082E00E94050388E40E94F702FE
:100C8000C0E0D1E008E011E069918EE892E00E94B6
:100C9000B1030C171D07C1F760E083E00E94A203B7
:100CA00065E371E08EE892E00E94B70361E085E0C1
:100CB0000E94A20360E471E08EE892E00E94B70314
:100CC00060ED77E080E090E00E942B020E94FD0240
:100CD0008DE00E94870089E00E94870060E08DE03F
:100CE0000E94BA0160E089E00E94BA01E09101022D
:100CF000F091020282E08083E091FD01F091FE011B
:100D00001082E091FF01F09100028FEC808310923D
:100D10000902E0910502F091060286E08083E091ED
:100D20000302F0910402808180618083E0910302DC
:100D3000F0910402808188608083E0910302F09149
:100D40000402808180688083E0910302F0910402B4
:100D500080818F7D808310E4C0E0D0E010937C0020
:100D600080917A00806480937A0080917A0086FD79
:100D7000FCCF80917800909179009093F00180935E
:100D8000EF0167E471E081EF91E00E94B703C0904A
:100D9000EF01D090F0010D2C000CEE08FF082AE0C6
:100DA000B701A601F7FE0DC06DE281EF91E00E9450
:100DB000A60044275527BA014C195D096E097F0921
:100DC0002AE081EF91E00E94C60366E271E081EFC4
:100DD00091E00E94B7036091EF017091F001072E3E
:100DE000000C880B990B0E94C30820E030EC4FE701
:100DF00054E40E94200820E030E048EC52E40E94D5
:100E000078094B015C016EE571E081EF91E00E9491
:100E1000B70322E0B501A40181EF91E00E9425040F
:100E200065E771E081EF91E00E94B7038091EF01E7
:100E30009091F0018C3221E092070CF07FC088E79E
:100E400091E00E94120461E08DE00E94BA0161E02D
:100E500089E00E94BA018091EF019091F0018D3BF1
:100E6000924064F081EB91E00E94120460E08DE01A
:100E70000E94BA0160E089E00E94BA0167E271E075
:100E800081EF91E00E94B7030E94FD0260E082E0E2
:100E90000E94A20362ED71E08EE892E00E94B70327
:100EA00061E080E00E94A203C090EF01D090F001C9
:100EB0000D2C000CEE08FF082AE0B701A601F7FE92
:100EC0000DC06DE28EE892E00E94A60044275527EF
:100ED000BA014C195D096E097F092AE08EE892E09B
:100EE0000E94C60361E086E00E94A20360EE71E00A
:100EF0008EE892E00E94B70361E088E00E94A203BE
:100F000022E0B501A4018EE892E00E94250462EE81
:100F100071E08EE892E00E94B70364EF71E080E038
:100F200090E00E942B02209709F418CF0E9417012D
:100F3000882309F413CF0E94000010CF8D529140F6
:100F40008F38914008F087CF8BE991E00E9412041E
:100F500060E08DE00E94BA0160E07ACF5058BB2774
:100F6000AA270E94C6070C9439090E942B0938F061
:100F70000E94320920F039F49F3F19F426F40C94B2
:100F800028090EF4E095E7FB0C942209E92F0E9452
:100F90004A0958F3BA17620773078407950720F0C8
:100FA00079F4A6F50C946C090EF4E0950B2EBA2F8B
:100FB000A02D0B01B90190010C01CA01A00111245F
:100FC000FF27591B99F0593F50F4503E68F11A160B
:100FD000F040A22F232F342F4427585FF3CF46959C
:100FE00037952795A795F0405395C9F77EF41F16BE
:100FF000BA0B620B730B840BBAF09150A1F0FF0F88
:10100000BB1F661F771F881FC2F70EC0BA0F621F73
:10101000731F841F48F4879577956795B795F79563
:101020009E3F08F0B0CF9395880F08F09927EE0FF8
:101030009795879508950E94FE0808F481E0089529
:101040000E9434080C9439090E94320958F00E9419
:101050002B0940F029F45F3F29F00C94220951112B
:101060000C946D090C9428090E944A0968F399238D
:10107000B1F3552391F3951B550BBB27AA27621794
:101080007307840738F09F5F5F4F220F331F441FA1
:10109000AA1FA9F335D00E2E3AF0E0E832D09150D5
:1010A0005040E695001CCAF72BD0FE2F29D0660FC2
:1010B000771F881FBB1F261737074807AB07B0E805
:1010C00009F0BB0B802DBF01FF2793585F4F3AF00B
:1010D0009E3F510578F00C9422090C946D095F3FF6
:1010E000E4F3983ED4F3869577956795B795F79591
:1010F0009F5FC9F7880F911D9695879597F9089579
:10110000E1E0660F771F881FBB1F62177307840714
:10111000BA0720F0621B730B840BBA0BEE1F88F723
:10112000E09508950E94520988F09F5798F0B92FD2
:101130009927B751B0F0E1F0660F771F881F991F0C
:101140001AF0BA95C9F714C0B13091F00E946C0939
:10115000B1E008950C946C09672F782F8827B85F49
:1011600039F0B93FCCF3869577956795B395D9F764
:101170003EF490958095709561957F4F8F4F9F4F6E
:101180000895E89409C097FB3EF49095809570957A
:1011900061957F4F8F4F9F4F9923A9F0F92F96E9C3
:1011A000BB279395F695879577956795B795F11138
:1011B000F8CFFAF4BB0F11F460FF1BC06F5F7F4FD5
:1011C0008F4F9F4F16C0882311F096E911C07723E7
:1011D00021F09EE8872F762F05C0662371F096E8F0
:1011E000862F70E060E02AF09A95660F771F881FBF
:1011F000DAF7880F9695879597F90895990F000863
:10120000550FAA0BE0E8FEEF16161706E807F907D8
:10121000C0F012161306E407F50798F0621B730B73
:10122000840B950B39F40A2661F0232B242B252BF4
:1012300021F408950A2609F4A140A6958FEF811D97
:10124000811D089597F99F6780E870E060E0089538
:101250009FEF80EC089500240A94161617061806CE
:101260000906089500240A941216130614060506AA
:101270000895092E0394000C11F4882352F0BB0F3B
:1012800040F4BF2B11F460FF04C06F5F7F4F8F4F9E
:101290009F4F089557FD9058440F551F59F05F3FD9
:1012A00071F04795880F97FB991F61F09F3F79F088
:1012B00087950895121613061406551FF2CF46950A
:1012C000F1DF08C0161617061806991FF1CF86958C
:1012D0007105610508940895E894BB276627772770
:1012E000CB0197F908950E94FE0808F48FEF089546
:1012F0000E948B090C9439090E942B0938F00E9436
:10130000320920F0952311F00C9422090C9428093D
:1013100011240C946D090E944A0970F3959FC1F342
:10132000950F50E0551F629FF001729FBB27F00D93
:10133000B11D639FAA27F00DB11DAA1F649F6627E8
:10134000B00DA11D661F829F2227B00DA11D621F37
:10135000739FB00DA11D621F839FA00D611D221FF1
:10136000749F3327A00D611D231F849F600D211DD5
:10137000822F762F6A2F11249F5750409AF0F1F058
:1013800088234AF0EE0FFF1FBB1F661F771F881FC1
:1013900091505040A9F79E3F510580F00C942209CE
:1013A0000C946D095F3FE4F3983ED4F386957795EE
:1013B0006795B795F795E7959F5FC1F7FE2B880F67
:1013C000911D9695879597F908950E94FE08880BC0
:1013D000990B0895A1E21A2EAA1BBB1BFD010DC09B
:1013E000AA1FBB1FEE1FFF1FA217B307E407F507D5
:1013F00020F0A21BB30BE40BF50B661F771F881FB1
:10140000991F1A9469F760957095809590959B0146
:10141000AC01BD01CF010895EE0FFF1F0590F491BF
:08142000E02D0994F894FFCFC0
:101428000303000000000000000000004D01AD00B3
:10143800DA009A010B01E900FD0000000000B10389
:10144800AD005E025D020D0A006E616E00696E6697
:10145800006F76660057454C434F4D4520544F006A
:10146800496E536F696C004D6F69737475726520AE
:1014780053656E736F722056616C75653A004D6FD7
:101488006973747572652050657263656E746167FF
:1014980065203D2000250A004920616D2074686997
:1014A800727374792C20706C656173652067697636
:1014B80065206D65207761746572004920666565F1
:1014C8006C20736F20636F6D666F727461626C65F8
:1014D80000546F6F206D7563682077617465722C96
:1014E8002049206D69676874206765742068757283
:1014F8007400536F696C204D6F6973747572650061
:0615080026002025000072
:00000001FF
